:020000040800F2
:10000000784C00200D03000877630008555900085C
:1000100075630008F525000813850008000000003E
:100020000000000000000000000000007502000851
:10003000712B000800000000B902000829680008C0
:1000400027030008270300082703000827030008E8
:1000500027030008270300082703000827030008D8
:1000600027030008270300082703000827030008C8
:10007000D5280008270300082703000827030008E5
:1000800027030008270300082703000827030008A8
:100090009D840008270300082703000827030008A1
:1000A0002703000827030008270300082703000888
:1000B000D5680008E1680008ED680008270300081B
:1000C0002703000827030008270300082703000868
:1000D00027030008356E00082703000827030008DF
:1000E00027030008270300082703000800F002F890
:1000F00000F0B0F80AA090E8000C82448344AAF112
:100100000107DA4501D100F0A5F8AFF2090EBAE80F
:100110000F0013F0010F18BFFB1A43F0010318473B
:1001200018BC000038BC00000A444FF0000C10F866
:10013000013B13F0070408BF10F8014B1D1108BF65
:1001400010F8015B641E05D010F8016B641E01F805
:10015000016BF9D113F0080F1EBF10F8014BAD1C55
:100160000C1B09D16D1E58BF01F801CBFAD505E073
:1001700014F8016B01F8016B6D1EF9D59142D6D3CD
:10018000704700000023002400250026103A28BFF5
:1001900078C1FBD8520728BF30C148BF0B607047F9
:1001A0006E2900F0F284702901F04B8066290BF073
:1001B000268465290BF0238467290BF020846129AC
:1001C0000BF01F8403681B0A28BF41F080016929D6
:1001D00000F01481642900F01181752900F00E816E
:1001E0006F2900F0D887782901F01780E92900F0FD
:1001F0007387E42900F07087F52900F06D87EF29F7
:1002000000F0D587F82901F016800368DB0928BFC4
:1002100041F08001632901F00F83732901F01483F9
:10022000E32901F01F83F32901F0248300207047A4
:100230001FB501F0E7F80400002000210AF02EFEAF
:10024000401C6060002000210AF012FEE0601FBD2B
:1002500010B510BD01F05FFD1146FFF7E9FF08F092
:1002600099FD01F085FD03B4FFF7F2FF03BC01F037
:1002700089FD0000224B19680868B0E8F00F80F390
:100280000988BFF36F8F4FF0000080F311884EF0A4
:100290000D0E70470000000006480068006880F3FB
:1002A000088862B661B6BFF34F8FBFF36F8F00DF70
:1002B00000BF00BF08ED00E0EFF30980BFF36F8FD0
:1002C0000F4B1A6820E9F00F106008B54FF050008E
:1002D00080F31188BFF34F8FBFF36F8F09F044FF96
:1002E0004FF0000080F31188BDE8084019680868E5
:1002F000B0E8F00F80F30988BFF36F8F704700BF3D
:10030000A8010020EFF305807047000009488047EE
:1003100009480047FEE7FEE7FEE7FEE7FEE7FEE7E7
:10032000FEE7FEE7FEE7FEE704480549054A064BFF
:1003300070470000D1680008ED00000878460020F2
:10034000784C002078480020784800207CB51D4675
:1003500016460C00009001D02044401E074B7B4401
:100360002A4669460190304600F037FE05461CB12A
:100370000020694600F044FE28467CBDA90C000020
:100380000FB41CB5084B06AA7B446946009005983B
:1003900000F023FE04460020694600F031FE2046AE
:1003A0001CBC5DF814FB0000750C000070B5044621
:1003B00085690068C10601D5302600E02026C00707
:1003C00007D070BDD4E9012130469047206A401C17
:1003D00020626D1EF6D570BD70B504468569007843
:1003E000C00707D170BDD4E9012120209047206AC1
:1003F000401C20626D1EF6D570BD00002DE9F04155
:100400000646002410687529314616A510D000F064
:1004100028FB002802DA404213A507E031688A076A
:1004200001D512A502E0490704D511A5012401E078
:1004300000F020FB00210A2206F1240709E0B0FBAE
:10044000F2FCB0FBF2F302FB1C003030785418468B
:10045000491C0028F3D123462A463046BDE8F04126
:1004600000F03ABB000000002D0000002B0000004F
:10047000200000002DE9F05F894604464FF0000A95
:10048000DFF874B1FB44C0F820A02046E16888473B
:10049000002874D0252806D0D4E901219047206A8D
:1004A000401C2062F1E700265F462046E16888474D
:1004B0002028054607DB312D05D2781910F8200CCD
:1004C00008B10643F1E7B00701D526F00406C4F8E9
:1004D0001CA00027C4F818A02A2D09D0284608F02F
:1004E00072FA38B304EB8708303DC8F8185019E0A9
:1004F00059F8041B204604EB87029161E1688847A4
:10050000012F054618D1E069002820DA26F02006E0
:100510001DE0D8F8180000EB800005EB40003038F3
:10052000C8F818002046E1688847054608F04BFAED
:100530000028EED1012F0AD02E2D08D12046E168E7
:1005400088477F1C0546022F46F02006C4DBA069C1
:10055000002803DA404246F00106A061F00701D00E
:1005600026F010066C2D0BD0682D09D04C2D39D0FB
:100570006A2D35D0742D35D07A2D33D016E038E081
:10058000E1682F4620468847B842054609D16C2FBE
:1005900026D04FF48060E168064320468847054630
:1005A00004E06C2F1AD04FF4807006430DB3A5F110
:1005B0004100192802D8203546F400664A462946EB
:1005C000204626604E46FFF7EBFD80B101280BD098
:1005D000F61D26F0070000F1080956E74020E4E781
:1005E0008020D8E70020D6E706F104094DE7284629
:1005F00052E7206ABDE8F09F6AB700000FB400B56B
:100600008DB010A9099000910B904FF0FF300A9027
:1006100000200C90064878440690064878446A46C4
:1006200007900F9909A800F02BFE0DB05DF814FBA0
:10063000870C00009F0C00002DE9FF5F1D464FF066
:10064000FF3B91464FF000085F46D5E90146A96996
:1006500001987F1C8847296A824688470028F6D17E
:10066000BAF1FF3F0CD0002E24F4C06419DD6006FF
:1006700014D5BAF12B0F09D0BAF12D0F0ED103E02A
:10068000584604B0BDE8F09F44F48064A96901981D
:100690007F1C8847761E8246002E02DDBAF1300F9D
:1006A00003D0B9F1000F26D032E0A969761E019877
:1006B0007F1C44F400748847002E824605DDBAF1A1
:1006C000780F06D0BAF1580F03D0B9F1000F10D04F
:1006D0001EE0B9F1000F02D0B9F1100F18D1A969CD
:1006E000761E01987F1C24F40074884782461020EF
:1006F00002E0082000E00A20814609E0A96908FB21
:100700000908761E01987F1C44F4007488478246CD
:10071000002E05DD4946504600F09EFD0028EDDA2A
:10072000E96901988847A00502D46FF00100A8E7A5
:10073000E00725D1600613D5600502D5C8F1000099
:1007400000E0404629680A1D2A600968220501D593
:10075000087015E0220701D5088011E008600FE05D
:100760002868011D29600068210502D580F80080F5
:1007700006E0210702D5A0F8008001E0C0F8008063
:1007800038467EE72DE9FF5F4FF000089946144692
:1007900046469169D2E901A7DDF838B0019888474B
:1007A000054659EA0B0005D009E0A1690198761CBD
:1007B00088470546216A284688470028F5D1681CE5
:1007C00003D05FEACA7005D015E04FF0FF3004B0E7
:1007D000BDE8F09F2068011D2160D0F800800AE08C
:1007E0005FEACA7001D108F8015BA169761C019823
:1007F0007F1E88470546002F1ADD681C18D0B9F106
:10080000000F0DD0E81705EBD060421120F01F005B
:1008100059F822102A1A012090400142E0D107E045
:10082000BBF1000FDCD12846216A88470028D7D0C9
:10083000E16901988847BBF1000F07D1002E05DD63
:100840005FEACA7002D1002188F80010A068B8429F
:1008500003DDBBF1000F03D017B16FF00100B6E765
:100860003046B4E710B5431C02E010F8011B71B12B
:100870008107FAD14FF0013202C88C1A8C4314EA76
:10088000C211F9D0C01A0A0603D0C01E10BDC01A8A
:1008900010BD0A0401D0801E10BD0902FCD0401E0C
:1008A00010BD032A40F2308010F0030C00F01580D8
:1008B00011F8013BBCF1020F624498BF11F801CB63
:1008C00000F8013B38BF11F8013BA2F1040298BFC8
:1008D00000F801CB38BF00F8013B11F0030300F032
:1008E000FF84083AC0F0088051F8043B083A51F8F8
:1008F00004CBA0E80810F5E7121D5CBF51F8043BDB
:1009000040F8043BAFF30080D20724BF11F8013B4D
:1009100011F801CB48BF11F8012B24BF00F8013BAF
:1009200000F801CB48BF00F8012B704702F0FF032D
:1009300043EA032242EA024200F002B84FF000020A
:100940000429C0F0128010F0030C00F01B80CCF1E1
:10095000040CBCF1020F18BF00F8012BA8BF20F84F
:10096000022BA1EB0C0100F00DB85FEAC17C24BFA3
:1009700000F8012B00F8012B48BF00F8012B70474D
:100980004FF0000200B5134694469646203922BF28
:10099000A0E80C50A0E80C50B1F12001BFF4F7AF73
:1009A000090728BFA0E80C5048BF0CC05DF804EB55
:1009B000890028BF40F8042B08BF704748BF20F8C3
:1009C000022B11F0804F18BF00F8012B7047000078
:1009D0004FF0013C50F8042B51F8043B9A4221D1CE
:1009E000A2EB0C03934313EACC1317D150F8042B5A
:1009F00051F8043B9A4215D1A2EB0C03934313EA3E
:100A0000CC130BD150F8042B51F8043B9A4209D176
:100A1000A2EB0C03934313EACC13DBD04FF000009E
:100A2000704700BFD01A01BAB1FA81F101F0180184
:100A300022FA01F0CB40C1F12001DBB2C0B2C01AF2
:100A40002CFA01F3D11A914311EAC311E6D1704790
:100A5000014900F077BC0000EC450020704770476A
:100A6000704709684A0501D540B27047C905FCD5F1
:100A700000B2704709684A0501D5C0B27047C90580
:100A8000FCD580B2704770B50C460546012A05D0EA
:100A90002878800600D5EA69002302E0012305E0FA
:100AA0005B1C934202D2E05C0028F9D1A869E618E9
:100AB000C01AA861286A184428622846FFF776FC05
:100AC00004E0D5E9012114F8010B9047B442F8D3B2
:100AD0002846FFF781FC70BD2DE9F0470D46994689
:100AE0009246044600F124080168880604D5E069AE
:100AF00021F01001216000E00120A84201DD471B28
:100B000000E00027A1697A1902EB0900081AA06128
:100B10002078C00602D42046FFF748FC002608E0F3
:100B2000D4E901211AF806009047206A401C761C7F
:100B300020624E45F4DB2078C0060AD52046FFF738
:100B400035FC06E0D4E9012130209047206A401CA2
:100B50002062381EA7F10107F4DC07E0D4E9012187
:100B600018F805009047206A401C2062281EA5F155
:100B70000105F3DC2046FFF72FFC2078000602D5A4
:100B80000220BDE8F0870120FBE711680268006AD7
:100B9000530501D508700AE0D30501D5088006E0A9
:100BA000130603D5C217C1E9000200E00860012066
:100BB000704770472DE9FF4F0C461E464FF0FF3738
:100BC0008BB0D2E90001DDF860800A908A46C1F35B
:100BD0000A5505B93D46002108464FF00000BAF11C
:100BE000000F00F4400005DA00EB80004FF44001F4
:100BF00001EA50004FEA9059B9F1010F00DDB94602
:100C00000A9850EA4A000ED044F61050A5F2FF357B
:100C100045432F14B8F1000F1ED07542291E1EDD6A
:100C2000C9F100021CE0B8F1010F4FF0000001D043
:100C3000302103E0F24305E02154401CB042FBDBCD
:100C400030460022002121540B99C1F80880C1E9E7
:100C500000200FB0BDE8F08FBD1B6D1CDEE74A46DB
:100C600000DA694206A800F0C3FF06AB93E807006C
:100C700003AB83E8070050460A9901F089F88DE834
:100C80000700A0F500501F3800900398002D0ADDE2
:100C900042F21F014A460844002303A90390684614
:100CA00001F0F2FA09E0A0F500504A461F3800238F
:100CB00003A90390684601F0FCFA8DE807000004E0
:100CC000000C03D04FF0FF30410800E01046B8F1AF
:100CD000000F03D00022009215461EE0751E05D4B9
:100CE00000F094FB303262556D1EF9D5B3460122F7
:100CF000084302D000227F1C04E02078302801D174
:100D000000227F1E002A099784D01DE0112D07DAEA
:100D100000F07CFB303262556D1C50EA0102F5D1C7
:100D2000084302D00098C8B10EE00021681E05E01B
:100D3000235C625C63542254401E491C8142F7DBF1
:100D4000AB46A81B401E0990002004F80B000B982E
:100D5000099AC0F80880C0E9002B7AE711264FF005
:100D6000000857E72DE9F04F88460446D21D22F0CF
:100D7000070191B0D1E90001CDE90A0107F0FFFDBB
:100D800002460B98C00F01D02D2007E02068810794
:100D900001D52B2002E0202101EAC000032A09909E
:100DA00001D0072A05DB03464146204600F0FAFC45
:100DB0000BE12078800601D5E06900E00620B8F15B
:100DC000650F814606D0B8F1660F18D0B8F1670FED
:100DD00070D131E00020B9F1110F009001DB112337
:100DE00001E009F101030AAA01A90CA8FFF7E2FE3C
:100DF000DDE90C70002609F10105834647E001207A
:100E00004B4600904FF000470AAA01A90CA8FFF733
:100E1000D1FEDDE90DB00C995D46002610B909F14F
:100E200001000D18B9EB050003D4C0F1FF3609F13C
:100E30000105A5EB09002BE0B9F1010F01DA4FF034
:100E400001090020B9F1110F0090484601DD11237E
:100E500000E003460AAA01A90CA8FFF7ABFEDDE9F2
:100E60000C704D4600268346207800070AD4AB4517
:100E700000DA5D4601A8012D04DD411911F8011CBD
:100E8000302907D04F4502DA17F1040F04DA0120A8
:100E900082460FE06D1EEEE7002F02DCED1B3E44A4
:100EA00003E0781CA84200DD7D1CB81B00F1010A9C
:100EB0004FF000472078000703D4AA4501DB4FF02C
:100EC000FF3A0021B7F1004F0DF143088DF84310B0
:100ED00024D002202B23002F01DA7F422D230A2168
:100EE000021EA0F1010000DC5FB197FBF1FC97FB53
:100EF000F1F201FB1C7C17460CF1300C08F801CD17
:100F0000EEE7A8F1010003702188090501D545210C
:100F100000E06521A0F1010800F8011C09980FA963
:100F2000A1EB0807FF1D00B10120411901EBEA7098
:100F3000A1693844081A401EA0612078C00602D476
:100F40002046FFF733FA099828B1D4E901219047E8
:100F5000206A401C20622078C00622D52046FFF778
:100F600025FA1EE0002E04DBB34502DD01A8805DFA
:100F700000E03020D4E901219047206A401C206223
:100F8000761CAAF101005FEA000A0AD100F03AFAE1
:100F9000C0680168405CD4E901219047206A401C88
:100FA0002062281EA5F10105DCDC07E0D4E901215F
:100FB00018F8010B9047206A401C2062381EA7F1E8
:100FC0000107F3DC2046FFF707FA032011B041E6E2
:100FD00001694A1C02610878704700B58FB0CDE9FD
:100FE00001310021059105497944CDE903101146ED
:100FF0006846FFF73FFA0FB000BD0000E5FFFFFFB6
:101000000A6802F8010B0A607047D1E900239A428E
:1010100002D2531C0B601070704700002DE9FF5F77
:1010200015468A460446DFF8AC80F8440027D8E924
:1010300000103E46CDE9001010E03AF816106A465E
:1010400002A800F047FE411C07D02178890603D58D
:10105000E269391891420DD80744761C2078800641
:1010600002D5E069B84205DDAE42E6DB3AF816008B
:101070000028E2D1A069C01BA0612046FFF796F9C5
:10108000D8E90010CDE90010002017E03AF8181058
:101090006A4602A800F01EFEB0F1FF3F81460BD069
:1010A00000250DF1080B05E0D4E901211BF805002E
:1010B00090476D1C4D45F7D308F10100B0428046C2
:1010C000E4DB206A384420622046FFF785F9BDE85A
:1010D000FF9F0000D6AB00002DE9F0418046D21DF5
:1010E00022F007020025D2E90002F52915A614D046
:1010F000011E72F1000106DA0023D0EB030063EB5E
:10110000020211A608E0D8F800108B0701D50FA63F
:1011100002E0490701D50EA601251146002408F179
:10112000240704E000F072F930323A55641C50EAAA
:101130000102F7D12B46324621464046BDE8F04138
:10114000FFF7CABC000000002D0000002B000000CB
:101150002000000030B4002100F1240408E002F077
:101160000705D208303542EA4372DB086554491C52
:1011700052EA0305F3D10468002310A2250707D51E
:10118000A40600D421B1C46901230DA2641EC46168
:1011900030BCFFF7A1BC10B5044621461068FFF72C
:1011A00069FC02462046BDE810400023D2E7D21D6C
:1011B00022F00701D1E90023CCE700000000000085
:1011C00030000000F0B40D460188090502D5214C1D
:1011D0007C4402E01F4C7C440E34002100F12406C4
:1011E00008E002F00F071209E75D42EA03721B09EB
:1011F0007754491C52EA0307F3D1027800231207FF
:1012000004D5702D06D009B1022311342246F0BC5A
:10121000FFF762BC01231034F8E770B504460D46B1
:1012200021461068FFF726FC024629462046BDE805
:1012300070400023C6E7D21D22F00703D3E9002344
:10124000C0E70368126843F0200303600823C3610A
:101250000023B7E738AA00003A2800D2303820F03F
:101260002002412A01D3A2F13700884201D34FF076
:10127000FF307047026811441378016018467047C8
:10128000D1600549794451610449794411620021D2
:101290001161114600F0F2BAEDFFFFFF09020000F4
:1012A000426842B1016811F8013B23B1521EC0E906
:1012B0000012184670470121C160881E70474268BD
:1012C0005AB1C368016843B983688B4205D0491E8F
:1012D000521CC0E90012002070474FF0FF307047E9
:1012E00010B5203AC0F00B80B1E81850203AA0E8C1
:1012F0001850B1E81850A0E81850BFF4F5AF5FEAF5
:10130000027C24BFB1E81850A0E8185044BF18C9A7
:1013100018C0BDE810405FEA827C24BF51F8043B4E
:1013200040F8043B08BF7047D20728BF31F8023BA2
:1013300048BF11F8012B28BF20F8023B48BF00F836
:10134000012B704770B50C46016800204A1C3ED046
:101350003C22B1FBF2F302FB1313B1FBF2F1236069
:10136000B1FBF2F302FB1313B1FBF2F1182263603D
:10137000B1FBF2F302FB1313B1FBF2F146F2E032E0
:101380000A440721A360B2FBF1F301FB132140F2F1
:10139000B553B2FBF3F5A161B2FBF3F103FB1522E8
:1013A0008900B2F5B77F08D39B10521EB2FBF3F54C
:1013B0002944B2FBF3F503FB15220F4BE261616197
:1013C00089077B440CD03B2A0AD3521C08E02C210D
:1013D0002046FFF7D5FA0120E0600AE0521A401CCF
:1013E000195C9142FAD9521CC4E903204FF0FF3036
:1013F0002062204670BD00002AA900000048704706
:1014000018460020004870473846002030B5B0F13B
:101410000A024FEA900E71F100034EEA817EB0EBB2
:101420000E0061EB91014FEA101E4EEA017E10EBB7
:101430000E0041EB11114FEA102E4EEA016E10EB37
:101440000E0041EB11214FEA104E4EEA014E10EB17
:101450000E0041EB1141401841F100014FEAD0006C
:1014600040EA41704FEAD10110EB80054FEA810458
:1014700044EA907444EB01046D1944EB0404521BDC
:10148000A3414FF0000348BF0A3200D530BD401CD5
:1014900041F1000130BD10B5044600F061FC006868
:1014A000005D00F0010010BD2DE9F04F04460D462F
:1014B000D21D22F0070089B0D0E90097484639468E
:1014C00007F05DFA0246F80F01D02D2307E02068EF
:1014D000810701D52B2302E0202101EAC0038DF80A
:1014E00020300BB1012000E00020032A824601D009
:1014F000072A04DB2946204600F054F93FE1207812
:10150000800601D40D2500E0E569C7F30A560D2DCC
:1015100049DA00214FEA175B08464FF00000002F20
:1015200000F4400007DA00EB80004FF4400100EBCC
:10153000D07001EA60008115012901DD4FF0FF3113
:1015400000224FEA850CBCF1180F06D31346ACF10C
:1015500018004FF08052C24003E04FF4801323FA8A
:101560000CF30CF10C0CBCF1200F04D3ACF1200CEB
:1015700009FA0CF001E007FA0CF000294FF00048DE
:1015800001DD18B90FE00ED140450CD319EB02096B
:101590005F4121B9404502D19F4329EA0209BBEBD3
:1015A000175F00D0761C2088000502D57B48784460
:1015B00002E07A487844193808AA302302F80A3041
:1015C000037C0AF10101002E0AF1020A53546A4613
:1015D00002DC4FF0300101E04FF031014FF0010823
:1015E0008DF8001002D0A6F2FF3603E059EA470159
:1015F00000D06B4E002D02DC2178090704D54FF096
:1016000002082E218DF80110C44600210BE0C7F31B
:1016100003433F01C35C491C6D1E02F808300529D5
:1016200008F1010801DA002DF1DC00210CE000EBEB
:101630001973491C1B786D1E082902F808304FEAFF
:10164000091908F1010801DA002DF0DC21688B0688
:1016500002D516E0A8F10108E04505DD02EB08031C
:1016600013F8013C302BF5D0B8F1000F09DD02EB87
:10167000080313F8013C2E2B03D1090701D4A8F16C
:101680000108002D05DD3E2102F808106D1E08F14D
:101690000108407C002E02F8080008F1010804DA75
:1016A0002D20764202F8080002E02B2002F8080004
:1016B0000A214FF47A70864208F101080BDB96FB91
:1016C000F0F3303302F8083096FBF0F308F101082C
:1016D00000FB136601E0642E0CDB642096FBF0F344
:1016E000303302F8083096FBF0F308F1010800FBF4
:1016F000136601E00A2E06DB96FBF1F0303002F8AB
:10170000080008F1010896FBF1F001FB1060303091
:1017100002F80800A16908F1010808EB050202EBD4
:101720000A00081AA0612078C00602D42046FEF7FD
:101730003DFE216A08AE01EB0A00206204E0D4E914
:10174000012116F8010B9047BAF1010AF7D220786F
:10175000C00602D52046FEF729FE6E4609E016F8BF
:10176000010B3E280FD0D4E901219047206A401C8C
:101770002062B8F10108F2D22046FEF72DFE09B032
:101780000320BDE8F08F206A2844206203E0D4E9FA
:101790000121302090476D1EEBD3F8E795A600009D
:1017A00002FCFFFF2DE9F0411F46044603260168B5
:1017B000072A01F4006004DB08B116A505E016A5B0
:1017C00003E008B115A500E015A521F01000206088
:1017D000A069C01EA0610FB1401EA0612046FEF7A7
:1017E000E5FD4FB1D4E9012138469047206A401CFD
:1017F0002062C01C206206E0206AFAE7D4E90121D9
:1018000015F8010B9047761EF8D22046FEF7E4FD4E
:10181000BDE8F0814E414E006E616E00494E4600BB
:10182000696E660010B5436913B1AFF3008001E043
:10183000FFF729F9012010BD127800F124010A7088
:1018400000224A700122EDE711684FF0FF32E9E70C
:1018500010B5436913B1AFF3008001E0FFF7DEFB81
:10186000012010BD128800F1240182840022C2846C
:101870000122EDE711684FF0FF32E9E72DE9F34F60
:101880004FF0000A0C4656468DB001200C9001F135
:101890000C000B9062690B9801219047051E2DD01A
:1018A000252D2CD0216A8847C0B162690B9801218F
:1018B0009047216A88470028F7D16269411E0B983A
:1018C000904700E0761CA1690D988847216A8847F7
:1018D0000028F7D1E1690D988847DBE7A1690D98E9
:1018E0008847A842074601D1761CD3E7E1690D98E5
:1018F00088477F1C02D1BAF1000F6FD06BE162699B
:101900000B9800273D46394690472A2804D1626942
:101910000B98012190470125DFF8D08262690B986E
:1019200001219047A0F130010A290AD24745E5DCA0
:1019300007EB870100EB4107303FDFD445F010058E
:10194000ECE7E90601D46FF000476C280AD04C2878
:1019500014D0682815D06A280DD074281CD07A2895
:101960001AD01DE062690B98012190476C2802D0C3
:1019700045F0040514E045F002050DE045F02005B2
:101980000AE062690B9801219047682802D045F06F
:10199000080505E045F4006562690B980121904750
:1019A000C4E9015765283DD019DC58287AD00CDCF1
:1019B000452837D004DC252826D041289ED131E0A7
:1019C00046282FD0472899D12CE05B2877D0612872
:1019D00028D063287CD0642823D15AE0F6E06F2811
:1019E00048D008DC66281DD067281BD0692821D084
:1019F0006E2816D127E0702845D0732868D0752846
:101A000047D078280DD14DE0A1690D988847252849
:101A100005463FF469AFE1690D9888476D1C3FF4B6
:101A20006AAFD8E00D9923466A466FF00100AFF324
:101A30000080C5E045F0400023464FF000026060A2
:101A4000A80736D43EE0E8077FF447AF2068011DC1
:101A500021600068290501D506701BE7290701D51B
:101A6000068017E7A90703D5F117C0E9006111E760
:101A700006600FE745F0400023464FF00802606023
:101A8000A80716D41EE040F60E0125EA01006060AA
:101A900016E045F0400023464FF00A026060A807B8
:101AA00007D40FE045F040006060A80708D5234642
:101AB00010220D996FF00100AFF3008080E007E085
:101AC000102223460D996FF00100FEF7B5FD77E077
:101AD0004FF0000963284F46C8464B46CB4602D01C
:101AE0005B2806D038E0E80601D40120A060012779
:101AF00032E06269D4F80CB00B98012190475E285F
:101B000007D14FF0010949466269D4F80CB00B982F
:101B10009047216939B900210A4603AB43F82120D7
:101B2000491C0829FADBD8B3216949B308F1010837
:101B300062690B98012190475D28F4D1B9F1000F3B
:101B400009D0002003A951F82020D24341F82020D9
:101B5000401C0828F7DB03AB2069002820794FEAF6
:101B600040701ED05B462246CDF80080CDE901973B
:101B70000D9900286FF0010020DAAFF300801FE01C
:101B8000C11703AA00EBD1614B1121F01F0102EB39
:101B90008302411A13680120884003431360C7E79A
:101BA00019E00D99224600286FF00100009702DA33
:101BB000AFF3008004E0FEF7E5FD01E0AFF3008045
:101BC00000280ADA401C06D10C9820B14FF0FF30F3
:101BD0000FB0BDE8F08F5046FAE7E90701D10AF1EE
:101BE000010A064400200C9054E60000CCCCCC0C3A
:101BF0002DE9F047814616468AB0354878440DC82D
:101C00008DE80D0032487844801C03AC0DC884E890
:101C10000D0041F69B300844372190FBF1F290FB18
:101C2000F1F5A5F1800501FB12041B3C02D56442CD
:101C3000012000E00020DFF898A080460027FA4449
:101C4000AAF1BE0A0EE0E0070AD03246684607EB6A
:101C5000470101230AEB810100F02BFB8DE807000F
:101C600064107F1C002CEED1194F7F44AE3F19E069
:101C7000E80715D007EB04100DF1180A90E80E00E4
:101C80008AE80E00C068F04201D1981908903246E7
:101C9000012306A903A800F00CFB03AB83E80700AF
:101CA0006D10641C002DE3D14FF0010332466946EC
:101CB000B8F1000F03A802D000F0E6FA01E000F04E
:101CC000F8FAC9E90001C9F808200AB0BDE8F087B0
:101CD000D8A0000070B516460C46054600F040F846
:101CE000036893F80101012806D0FF2C0FD8185D76
:101CF00068B101202C7070BDD3F80701324621462F
:101D000003F2071303442846BDE8704018474FF01C
:101D1000FF3070BD70477546FFF770FBAE4605009B
:101D20006946534620F00700854618B020B5FEF7F7
:101D3000FBFABDE820404FF000064FF000074FF0DF
:101D400000084FF0000B21F00701AC46ACE8C009D9
:101D5000ACE8C009ACE8C009ACE8C0098D467047E2
:101D600010B5FFF74FFB001D10BD00BF3191000003
:101D700010B50446AFF300802046BDE81040FEF7E2
:101D800072BA000001491820ABBEFEE7260002002F
:101D90005FEA400C08BF91F0000F4FEA8C234FEA36
:101DA000C12243EA51514FEA1C5018BF00F5F040E0
:101DB0004FEA300018BF41F000415FEA6C5C00F070
:101DC0002980BCF1FF3F08BF40F080407047130CF2
:101DD00006BF12044FF0100C4FF0000C130E04BF9E
:101DE00012020CF1080C130F04BF12010CF1040CC9
:101DF000930F04BF92000CF1020CD30F04BF5200EA
:101E00000CF1010C11464FF00002A0F11F00A0EBF5
:101E10000C00704711F0004F08BF704731F00041CF
:101E20003FF4D5AF0B0C06BF09044FF0100C4FF078
:101E3000000C0B0E04BF09020CF1080C0B0F04BFC1
:101E400009010CF1040C8B0F04BF89000CF1020C8A
:101E5000CB0F04BF49000CF1010CCCF12003A0EB27
:101E60000C0022FA03F302FA0CF241EA030100F13A
:101E70000100704720F07F4C80EA030023F07F4789
:101E8000ACEB070303F57C5300F0004003F1FF03C4
:101E90002DE980494FEA154B09B44FEA144325EA6E
:101EA0000B4E24EA03480FF2042606EB13274908D9
:101EB0003E785FEA320203FB0667C7F5000707FBBF
:101EC00006F64FEA54374FEAD64606F1020607FBFC
:101ED000066CCCF1005C4FEA1C472CEA074C07FB70
:101EE00006F40CFB06F504EB15464FEA961634BFD4
:101EF00000204FF000404FEAD13706FB07FC4FEAC5
:101F00001C4C0CFB0BF7D21B03FB0CF761EB07011E
:101F10000CFB0EF7B0EB074072EB17420CFB08F717
:101F200034BFA2EB0742B2EB074261EB17414FEA25
:101F30000C444FEA910706FB07FC4FEA1C4C0CFBD4
:101F40000BF7B0EBC74072EB573203FB0CF734BF13
:101F5000A2EBC742B2EBC74261EB57310CFB0EF765
:101F6000B0EBC70072EB57720CFB08F734BFA2EB63
:101F7000C702B2EBC70261EB5771039F4FEA816161
:101F800041EA921104EBCC044FEAD1374FEA826266
:101F900006FB07FC42EA90124FEA80604FEA1C4CB5
:101FA0000CFB0BF7D21B03FB0CF761EB07010CFBDF
:101FB0000EF7B0EB074072EB17420CFB08F734BF8B
:101FC000A2EB0742B2EB074261EB17414FEA8C5597
:101FD0004FEA910704EB9C2406FB07FC4FEA1C4CDC
:101FE0000CFB0BF7B0EBC74072EB573203FB0CF75F
:101FF00034BFA2EBC742B2EBC74261EB57310CFBD7
:102000000EF7B0EBC70072EB57720CFB08F734BF4A
:10201000A2EBC702B2EBC70261EB577115EB4C257F
:102020004FEA816141EA92114FEA82624FEAD13769
:1020300042EA901206FB07FC44F100044FEA80607C
:102040004FEA1C4C0CFB0BF7D21B03FB0CF761EBAC
:1020500007010CFB0EF7B0EB074072EB17420CFBCD
:1020600008F734BFA2EB0742B2EB074261EB17411E
:1020700015EB1C154FEA813141EA92414FEA823259
:1020800042EA90424FEA80304FEA0C7644F1000475
:1020900048EA03434EEA0B484FF0000EB2EB080C3F
:1020A00071EB030724BF624639464EEB0E0E4FF02C
:1020B000000B0018524149414BEB0B0BB2EB080CE3
:1020C00071EB03077BF1000B24BF624639464EEBF0
:1020D0000E0E4FF0000B0018524149414BEB0B0B19
:1020E000B2EB080C71EB03077BF1000B24BF6246D7
:1020F00039464EEB0E0E51EA020718BF46F00106B4
:1021000016EB0E7655F1000254F1000103D5BDE83F
:102110008901BDE80088BDE88901BDE80048B6191D
:10212000524141EB0101A3F10103704780807F7EA2
:102130007D7C7B7A7978777676757473727171703D
:102140006F6E6E6D6C6C6B6A6A69686867666665EF
:102150006464636362616160605F5F5E5E5D5D5C7D
:102160005C5B5B5A5A5959585857575656555555EE
:102170005454535352525251515050504F4F4F4E4E
:102180004E4D4D4D4C4C4C4B4B4B4A4A4A4949499C
:1021900048484847474747464646454545444444DE
:1021A000444343434342424242414141002B9C4607
:1021B00030D477002BD01CB54FEA370703B44FF06B
:1021C00010004FF01001BAF1000F06D0BCF1000F63
:1021D000DCBF40F0080040F008014FF000000FBCE9
:1021E000BDE810400BF1010BBBF1010F08BF5FEA26
:1021F000170722BF12F1010211F101014FF0004156
:1022000043F1000300F0004043EA00007047F9D3B7
:102210005708D0E746EA064613F1400F4FEA164644
:102220001FDD13F1200FDFBF16430A4600212033C4
:102230005B42BED0C3F1200746EA064602FA07F722
:102240004FEA164646EA0706C3F1200722FA03F2D0
:1022500001FA07F721FA03F14FF0000342EA0702FF
:10226000A7E746EA020646EA06464FEA164646EA67
:102270000106BCBF46EA0646360C4FF000034FF09D
:1022800000024FF0000194E72DE9804C9A469346F6
:1022900070B491E8380007C831EA400C48BF34EA0E
:1022A000430C03D5FFF7E6FDFFF780FFF0BCBDE868
:1022B000008C2DE9804C9A46934670B491E8380022
:1022C00007C810F0804F08BF13F0804F03D100F013
:1022D00005F8FFF76BFFF0BCBDE8008C20F07F47EE
:1022E00080EA030023F07F4C07EB0C03A3F57C533B
:1022F00000F00040A3F1FE0392F0000F00F0B38065
:1023000095F0000F00F077802DE901494FEA114068
:102310004FEA144621EA004800FB06FC24EA06477F
:1023200008FB06F607FB08F800FB07F718EB064862
:102330004CEB164C4FEA124B18EB07484FEA154688
:102340004CEB174022EA0B4E0BFB06FC25EA064736
:102350000EFB06F607FB0EFE0BFB07F71EEB064E09
:102360004CEB164C4FF000061EEB074E4CEB174B98
:1023700018EB0B0840F1000018EB0E0B58EB0008AF
:1023800040F100008F1A4FF000013CBFC943661BAB
:1023900014BFB5EB040C00213CBFC943F61B4FEA48
:1023A00017444EEA8E0E27EA04454FEA1C4704FB09
:1023B00007622CEA074C05FB07F70CFB05F604FB4C
:1023C0000CFC16EB074642EB174216EB0C4642EBB1
:1023D0001C421BEB060658EB0202414146EA9E06F0
:1023E00001D5BDE80189B619524141EB0101A3F1C4
:1023F0000103BDE801894FEA14454FEA114724EA79
:10240000054621EA074C05FB07F406FB07F70CFB22
:1024100006F105FB0CFC11EB074144EB17444FEAB6
:10242000124711EB0C4144EB1C4422EA074C05FB1C
:1024300007F206FB07F70CFB06F605FB0CFC16EB98
:10244000074642EB174216EB0C4642EB1C456A1856
:1024500054F1000148BF7047B619524141EB0101E8
:10246000A3F10103704795F0000F37D04FEA1142F6
:102470004FEA144721EA024624EA074C02FB07F11F
:1024800006FB07F70CFB06F402FB0CFC14EB0744FD
:1024900041EB17414FEA154714EB0C4441EB1C414B
:1024A00025EA074C02FB07F506FB07F70CFB06F6CF
:1024B00002FB0CFC16EB074645EB174516EB0C46EA
:1024C00045EB1C42121951F1000148BF7047B61983
:1024D000524141EB0101A3F1010370474FEA14455A
:1024E0004FEA114724EA054621EA074C05FB07F1AC
:1024F00006FB07F70CFB06F24FF0000605FB0CFC91
:1025000012EB074241EB174112EB0C4251EB1C411D
:1025100048BF7047921841EB0101A3F101037047D6
:1025200070B5044600688168C943C90717D181683E
:1025300021F00101816000F063FF05460AE000BF61
:1025400000F05EFF401B022804D920688068C04369
:10255000C00706D020688068C043C007F0D00020C4
:1025600070BDA06A40F01000A062E06A40F0010077
:10257000E062012070BD0000F8B500260446009618
:1025800000688168C943C9072DD0816841F0010105
:102590008160164816490068B0FBF1F000E0401E6B
:1025A00000900028FBD100F02BFF054616E000BF8D
:1025B00000F026FF401B022810D920688068C04325
:1025C000C0070BD0A06A40F01000A062E06A40F0A3
:1025D0000100E06284F824600120F8BD2068806872
:1025E000C043C007E4D10020F8BD00005400002023
:1025F00040420F00FEE700207047002070470000B7
:1026000010B500220449054804F00CFD04490348B4
:1026100004F002FD002010BDF43A00203034002008
:10262000F43600200FB44FF4806110B503AB0548B9
:10263000029AFDF78BFE81B2024800F085F810BCCB
:102640005DF814FBF43A002010B504468EB0214426
:10265000002048700A900B900C900AAA20A12046F6
:10266000FDF7CCFF1FA10AA8FEF7B2F9002834D16C
:102670000DAB0AAA1DA12046FDF7C0FF09AA08A9B3
:1026800007A88DE8070006AB05AA04A90D9806F077
:10269000C9FA049880B200F04CFA0598C0B200F074
:1026A0001CFA0698C0B200F0EBF90798C0B200F02F
:1026B000F0F90898C0B200F007FA0998C0B200F02B
:1026C0002FFA0DF1180C9CE80F008DE80F00DDE9E2
:1026D0000423214607A0FFF7A5FF0EB010BD0000A0
:1026E0002573000074696D6573657400257320257A
:1026F0006400000025730D0A54696D6520736574CC
:1027000020746F2025642D253032642D25303264ED
:1027100020253032643A253032643A253032640D57
:102720000A00000070B50D4604460146054804F055
:1027300073FC044804F054FC20462968FFF784FF2A
:10274000002070BD30340020094A10B5D2F8B822FC
:10275000D2F814220AB1012010BD0A4601460448ED
:1027600004F060FCBDE81040014804F0B9BC000072
:10277000303400200148407B7047000020340020A6
:102780000148007B70470000203400200260816017
:10279000838070472DE9F04F4FF0000A8BB004465C
:1027A00056465746012107F0E9F9A1880022206822
:1027B00000F021FE122000F017FDA06802F02CFBB3
:1027C0000021204607F0DAF9A0680025006845627C
:1027D0004FF4FA7903E0406A80B248453BD8A188BB
:1027E000206800F003FE0128A0680068F3D045626D
:1027F00003E0406A80B248452DD8A188206800F0E7
:10280000F5FD0028A0680068F3D0416A456202E047
:1028100080B248451FD8A188206800F0E7FD012854
:10282000A0680068406AF3D04FF00008EB46A0684B
:102830000068456203E0406A80B248450BD8A18831
:10284000206800F0D3FD0028A0680068F3D045623E
:1028500005E0484503D900200BB0BDE8F08FA18802
:10286000206800F0C3FD0128A0680068406A80B2BB
:10287000EFD0A0F11501092901D2002003E03D3875
:10288000132801D2012082460BF808A008F10108A4
:10289000B8F1280FCBDBA06802F012FB00215846EC
:1028A000425C491C32445206160E0829F8DB1021FE
:1028B000425C491C3A445206170E1829F8DB2020C6
:1028C000401C2828FCDB7008790821736073012004
:1028D000C2E70000014800F077BB0000C0060020FE
:1028E00030B590F840500124AC40C56B6C60046872
:1028F00063604368102B036803D099600068C2606E
:1029000030BD9A600068C16030BD10B50F2000F086
:102910006DF800F0FE01BDE810400F2000F0EEB8A9
:1029200010B50F2000F062F800F0FD01BDE8104086
:102930000F2000F0E3B800F00F01000900EB800069
:1029400001EB4000C0B2704710B504460E2000F005
:102950004DF800F0FE0104F0010001430E2000F0EC
:10296000CDF8BDE81040012000F09EB810B5044637
:102970000E2000F03BF800F0FD0004F0010140EAF9
:1029800041010E2000F0BAF8BDE81040012000F02F
:102990008BB80A21B0FBF1F201FB1202B0FBF1F09F
:1029A00002EB0010C0B2704710B5042000F01EF812
:1029B000BDE81040FFF7BFBF10B5022000F016F8C9
:1029C000BDE81040FFF7B7BF10B5012000F00EF8CA
:1029D000BDE81040FFF7AFBF10B5052000F006F8C6
:1029E000BDE8104000F07F00FFF7A5BF31B582B011
:1029F000094D4FF0FF340094012302AAD02128682A
:102A000000F0F0FE0094012301AAD021286800F014
:102A1000C1FD9DF804003EBD0000002010B500205F
:102A2000FFF7E4FFBDE81040FFF785BF10B50620B3
:102A3000FFF7DCFFFFF77FFF04460520FFF7D6FF17
:102A4000C00900EBC00101EB00104FF4FA6101EB8B
:102A50008001081910BD0000084910B50860002069
:102A6000FFF772FF0020FFF781FFFFF74EFFFFF730
:102A700057FFBDE81040012000F016B8000000200C
:102A800010B5FFF786FF0146BDE81040042000F0B6
:102A900035B810B500F03F00FFF77BFF0146BDE8F9
:102AA0001040022000F02AB810B504460E20FFF7AF
:102AB0009DFF04F0010100F0FB0040EA8101BDE848
:102AC00010400E2000F01AB810B5FFF762FF014663
:102AD000BDE81040012000F011B810B504460520F3
:102AE000FFF784FF00F080032046FFF752FF40EA23
:102AF0000301BDE810400520AFF300801CB50223A0
:102B00008DF804004FF0FF30009004488DF8051058
:102B100001AAD021006800F065FE1CBD0000002065
:102B200010B5FFF736FF0146BDE810400020FFF763
:102B3000E5BF70B504466426B0FBF6F01421B0FB87
:102B4000F1F201FB12050520FFF750FF65F3DF10DE
:102B5000C1B20520FFF7D2FFB4FBF6F006FB104030
:102B6000FFF717FFBDE8704001460620FFF7C6BF1C
:102B7000704772B6FEE70000F8B50024009490F8A4
:102B800024202546012A12D0012280F824204A68F8
:102B90001F23072A0DD20668776B521E02EB8202B2
:102BA00093409F430B6893401F43776319E00220D3
:102BB000F8BD06680D2A0AD2376BD21F02EB8202DB
:102BC00093409F430B6893401F43376309E0F76AC4
:102BD0000D3A02EB820293409F430B6893401F43E0
:102BE000F7620A68072306680A2A0AD3F7680A3ACE
:102BF00002EB420293409F438B6893401F43F76070
:102C000008E0376902EB420293409F438B68934090
:102C10001F4337610A68102A01D0112A20D1124BB4
:102C200002689A4217D193681B0219D4936843F43F
:102C3000000393600968102912D10C490C4A0968F5
:102C4000B1FBF2F101EB8101490000E0491E009166
:102C50000029FBD104E0816A41F020018162012456
:102C600080F824502046F8BD002401405400002084
:102C700040420F000068C06C704700002DE9F04131
:102C80004FF0000704003D467ED0A06A002628B918
:102C9000E66284F82460204600F07EF82046FFF7C4
:102CA0003FFCA16AC90600D420B1A06A40F0100020
:102CB000A06269E0A16A21F4885141F00201A16299
:102CC0006268E169237B0A4347EA43010A43A1683A
:102CD0004FF48077B94209D0012907D05FF0000195
:102CE00094F814C0BCF1010F02D00AE03946F7E7AE
:102CF000F3B1A36A43F02003A362E36A43F0010344
:102D0000E3622368D3F804C02CF4694C4CEA010C4C
:102D1000C3F804C021688B68DFF870C003EA0C03B5
:102D200013438B60A168B9420BD0012909D00CE094
:102D3000DFF85CC0A3690CEB43330B4343F4006141
:102D4000DFE7218A0D05A5F580152168CB6A23F4FC
:102D500070032B43CB62216889680E4B1940914266
:102D600008D1E662A16A21F0020141F00101A162ED
:102D7000BDE8F081A06A20F0020040F01000A062DF
:102D8000E06A40F00100E0620120F1E7FDF7E1FFB9
:102D900000E0FFFFFE0E1FFF10B586B0002100917E
:102DA0000191029103911B4C03681B4802210322ED
:102DB000A34214D1836943F400738361836903F4EC
:102DC00000730493836943F0040383618069CDE950
:102DD000001200F0040004906946104816E0104C00
:102DE000A34215D1836943F480638361836903F44B
:102DF00080630493836943F0080383618069CDE9AC
:102E0000001200F0080004906946064800F0FEF940
:102E100006B010BD0024014000100240000801402F
:102E200000280140000C014070B5044690F82400D1
:102E300001280DD0012084F824002046FFF79CFBD8
:102E400002004FF0000005D084F82400104670BD49
:102E5000022070BDA16A40F20123994341F48071C0
:102E6000A1621F4D23681F49AB4218D10E6816F4AA
:102E7000702F14D0A66A46F48016A6620E687605F6
:102E800005D5A66A26F4005646F48056A662A66AC0
:102E9000F6040AD5E66A26F00606E66206E0A66AA9
:102EA00026F48016A6625E68E9E7E06284F82400F2
:102EB0006FF00200186020688368C3F34243072B59
:102EC00005D1A84208D1096811F4702F04D0816897
:102ED00041F480118160B9E7816841F4A001F9E70C
:102EE000002801400424014010B590F82110002270
:102EF000022905D00421816380F82020012010BD23
:102F000001680B6823F00E030B6001680B6823F067
:102F100001030B6090F84030C46B012101FA03F308
:102F2000636080F8211080F82020104610BD00005A
:102F300010B590F821100024022903D004218163E8
:102F400001243DE001680A6822F00E020A6001686F
:102F50000A6822F001020A601A4A0168914201D10E
:102F6000012121E0174A1432914201D110211BE0C6
:102F7000144A2832914201D1891515E0114A3C3298
:102F8000914201D189140FE00E4A5032914202D190
:102F90004FF4803108E00B4A6432914202D14FF481
:102FA000801101E04FF08071064A083A516001211A
:102FB00080F82110002180F82010416B01B1884772
:102FC000204610BD080002402DE9F05FC16B0C687F
:102FD00001680B68D0F840C0042202FA0CF2494D97
:102FE000DFF824A1494E4A4FDFF828B1DFF828E185
:102FF00022422CD05A072AD50A68920603D40A68BE
:1030000022F004020A600168A94201D1042219E0F9
:10301000514501D1402215E0B14202D14FF4806206
:1030200010E0B94202D14FF480420BE0594502D181
:103030004FF4802206E0714502D14FF4800201E096
:103040004FF080622F4908394A60C16A3BE04FF077
:10305000020808FA0CF818EA040F4FF000094FF0C4
:10306000010235D05FEA837832D50B689B0605D420
:103070000B6823F00A030B6080F821200168A94245
:1030800001D1022219E0514501D1202215E0B142BF
:1030900002D14FF4007210E0B94202D14FF4005255
:1030A0000BE0594502D14FF4003206E0714502D1E0
:1030B0004FF4001201E04FF00072124908394A60E3
:1030C00080F82090816A00291AD0BDE8F05F084797
:1030D000082505FA0CF5254212D01B0710D50B6800
:1030E00023F00E030B6090F84010C36B02FA01F15D
:1030F0005960826380F8212080F82090016BE2E71C
:10310000BDE8F09F080002401C0002403000024071
:1031100044000240580002406C00024030B528B321
:1031200008C8134914221944B1FBF2F18900C163A4
:1031300010498163022141771A6843F6F0718A438E
:10314000D0E900142143D0E902452C43214304690E
:1031500021434469214384692143114319600021BB
:103160004163012242770177084630BD012030BD1E
:10317000F8FFFDBF0000024070B5044690F8200043
:10318000002501280CD0012084F8200094F821604B
:103190000020012E06D084F820000225284670BDAC
:1031A000022070BD022684F82160A06320680668B2
:1031B00026F0010606602046FFF792FBE06A002831
:1031C0002068016802D041F00E0106E021F0040100
:1031D00001602068016841F00A010160206801680F
:1031E00041F001010160D9E770B5044600F008F92B
:1031F0000546601C02D004480078044400F000F941
:10320000401BA042FAD370BD580000202DE9F84FB2
:10321000DFF8B8910024A9F1040B23460F2709F128
:10322000040AABF1040EC9E00125A5402A40AA42D8
:103230007DD1674ED1F804C0ACEB0608B44532D05E
:1032400014DCBCF1030F3AD009DCBCF1000F2AD02A
:10325000BCF1010F1CD0BCF1020F31D11DE0BCF15B
:10326000110F17D0BCF1120F2AD119E0B8F5881F41
:1032700019D006DCB8F5803F15D0B8F5801F1FD1F6
:1032800011E0B8F5001F0ED0B8F5041F18D10AE000
:10329000CB6815E0CB681B1D12E0CB6808330FE04C
:1032A000CB680C330CE08B682BB1012B4FF008037B
:1032B00003D0456104E0042302E0056100E000233F
:1032C000FF2A01D8064601E000F104064FEA840512
:1032D00001D9A5F12005D6F8008007FA05FC28EAF7
:1032E0000C0803FA05F548EA0508C6F800804D68A1
:1032F000ED0062D5374DAE6946F00106AE61AD69AD
:1033000024F0030605F001050095334D06EB050C8E
:10331000DCF80850A607360F07FA06F825EA080574
:10332000DFF8B880404503D14FF0000817E044E0D3
:10333000DFF8AC80404502D14FF001080FE0DFF824
:10334000A480404502D14FF0020808E0DFF89880E1
:10335000404502D14FF0030801E04FF0040808FA9D
:1033600006F848EA0508CCF808804D68D9F80060EE
:10337000ED024D4601D5164300E096432E604D68A0
:10338000DAF80060AD02554601D5164300E09643D9
:103390002E604D68DBF80060AD035D4601D5164335
:1033A00000E096432E604D68DEF80060ED03754640
:1033B00001D5164300E096432E60641C0D682A4632
:1033C000E5407FF431AFBDE8F88F0000080401400C
:1033D00000001110001002400000014000080140F0
:1033E000000C0140001001400014014080680840BA
:1033F00000D0012070470AB1016170470904FBE762
:1034000001488068704700005800002070B5040033
:1034100025D094F83D00002520B984F83C50204682
:1034200000F076FA242084F83D002068016821F03D
:10343000010101602068016841F4004101602068D9
:10344000016821F40041016001F02AF94D4A6168E8
:10345000914201D84C4900E04C49884201D20120F8
:1034600070BD4B492368B0FBF1F15E6826F03F0662
:103470000E435E606368934206D94FF496735943D6
:103480004FF47A73B1FBF3F12368491C1E6A26F0EE
:103490003F06314319626168914210D84900401ECD
:1034A000B0FBF1F2521CC2F30B02042A01D2042039
:1034B00022E0B0FBF1F0401CC0F30B001CE0A2685E
:1034C000F2B301EBC10303EB0116431EB3FBF6F3AA
:1034D0005B1C43F480431B0549D092B301EBC1024E
:1034E00002EB0111401EB0FBF1F0401CC0F30B00D9
:1034F00040F4804040F400402168CA694CF6FF73F4
:103500009A431043C861D4E9071001432068026858
:1035100022F0C00211430160D4E903010143206895
:10352000826848F2FF339A4311438160D4E9050170
:1035300008432168CA6822F0FF021043C86001E016
:103540000EE016E02068016841F001010160256489
:10355000202084F83D00256384F83E50002070BD93
:1035600001EB4106431EB3FBF6F35B1CB3E70120FE
:10357000C2E701EB4101401EB0FBF1F0401CC0F37B
:103580000B00B7E7A086010080841E0000093D0003
:1035900040420F002DE9F84F0025DDF828909846AD
:1035A00017468A4604460095FFF72AFF064694F818
:1035B0003D0020287AD11923012286492046009611
:1035C00002F0D0FA0028F5D194F83C0001286DD023
:1035D000012084F83C0020680168C90703D1016814
:1035E00041F0010101602068016821F4006101607F
:1035F000222084F83D00102084F83E002564676294
:10360000A4F82A80608D20857348E06233464A46DC
:103610005146204602F0B6F900287CD1208DDFF813
:10362000BC81202768B1012814D0022820680168D5
:103630001ED041F48061016020684169806900907A
:10364000BBE02068416981690091016841F4007123
:103650000160B2E02068016821F48061016072B607
:103660002068416981690091016841F400710AE0B4
:1036700041F40061016072B620684169816900917E
:10368000016821F48061016062B696E0032865D884
:1036900001280CD002284B464FF00002414620463C
:1036A00000960BD002F05EFAA8BB0CE090E0324628
:1036B0004946204602F0FCFA68BB71E002F052FA7B
:1036C00048BB72B633E02068016821F48061016074
:1036D00072B620680069616A0870606A401C6062A6
:1036E000208D401E2085608D401E60853C4846F23E
:1036F000A8110068B0FBF1F0C0EBC00000EB800047
:103700000090401E009007D020684069C0434007E9
:103710000DD50098F5E727E044F8305F6773A5738F
:10372000206940F02000206162B625731CE020680B
:10373000016841F40071016020680069616A0870E5
:10374000606A401C6062218D491E2185618D491E81
:10375000618562B621680969017025E032464946F3
:10376000204602F0A5FA10B10120BDE8F88F2068CC
:103770000069616A0870606A401C6062208D401EAA
:1037800081B22185608D401E608520684269D243E8
:10379000520712D4032903D1016821F4806101602A
:1037A00020680069616A0870606A401C6062208D50
:1037B000401E2085608D401E6085208D00287FF48E
:1037C00065AF84F83D7084F83E5084F83C50CCE7F7
:1037D0000220CAE7020010000000FFFF0400010001
:1037E000540000202DE9F84F1F4690468A460446B3
:1037F000DDF82890FFF704FE054694F83D002028E8
:103800007FD11923012240492046009502F0AAF9F0
:10381000002876D194F83C00012872D0012084F869
:103820003C0020680168C90703D1016841F001012B
:1038300001602068016821F400610160212084F8A2
:103840003D00102084F83E0000262664C4F8248041
:103850006785608D20852D48E0622B464A4651469B
:10386000204602F005F990B920684169806900900E
:1038700036E02A464946204602F052FA50B1206C02
:10388000042804D12068016841F40071016001201E
:10389000BDE8F88F606A216800780861606A401CA2
:1038A0006062618D491E6185218D491E89B2218525
:1038B00022685369DB435B070BD451B10078106178
:1038C000606A401C6062608D401E6085208D401ED5
:1038D00020852A464946204602F018F90028CED114
:1038E000208D0028C5D154F83D0B016841F40071CA
:1038F0000160202004F81E09E67766770020C7E7FC
:10390000FFE70220C4E70000020010000000FFFFF4
:1039100010B586B0002100910191029103910068D9
:103920000F4988421AD10F4CA06940F00800A061ED
:10393000A069694600F008000490C02000901220A1
:103940000190032003900848FFF760FCE06940F411
:103950000010E061E06900F40010049006B010BDB2
:103960000054004000100240000C014002488168F1
:10397000027811448160704758000020074810B554
:10398000016841F010010160032000F0A7F80F204A
:1039900000F006F800F050F8002010BD00200240B2
:1039A00030B505461F4887B0C16941F00401C161C7
:1039B000C06906A900F00400009001A800F050FEC4
:1039C0000498B0B100F06CFE40001749174AB0FBF4
:1039D000F1F11748491E0260416040F2E7320021D0
:1039E000C0E903218160816101F0CCF9040003D0BA
:1039F00015E000F055FEE8E70D4801F035FA040047
:103A00000DD11E2000F03CF8102D07D200222946CF
:103A10001E2000F043F80748056000E0012407B0CD
:103A2000204630BD0010024040420F000008004018
:103A3000A00500205C0000200F4808B5816941F016
:103A400001018161816901F001010091C16941F0C9
:103A50008051C161C069002200F0805000900F21A8
:103A6000901E00F01BF80548416821F0E06141F02C
:103A70000071416008BD00000010024000000140DC
:103A8000002809DB00F01F0201219140400980005D
:103A900000F1E020C0F8001170470000F0B40E4BB8
:103AA0001B680C46C3F30223C3F10705042D00D99C
:103AB0000425191D072901D2002300E0DB1E012681
:103AC00006FA05F1491E214099409E40761E164097
:103AD0003143F0BC04F067BF0CED00E0064900F094
:103AE000070208684FF6FF03184040EA0220034A25
:103AF00010430860704700000CED00E00000FA057C
:103B000010B50C0607D501F0070101EB810100EBB0
:103B1000C100103005E001EB810100EBC10000F5B0
:103B2000A87099B232B1012202730181190C41814E
:103B3000002010BD00220273C180F9E7704701EB3D
:103B4000810200EBC202D0F8D402526A03F077BCC3
:103B500001EB810200EBC202D0F8D402D2F864215A
:103B600003F0D0BC70B504460B0601F0070000EB73
:103B7000800104EBC1014FF001024FF0000502D5B6
:103B80004A74103103E081F8515101F5A8710870B1
:103B900094F89002012808D084F89022206804F05C
:103BA00011F984F89052002070BD022070BD70B5EC
:103BB000044601F00F002279904201D9012070BD26
:103BC0000B0601F0070000EB800104EBC1014FF090
:103BD00001024FF0000502D54A74103103E081F86C
:103BE000515101F5A8718D70087094F89002012868
:103BF00008D084F89022206804F081F984F890526B
:103C0000002070BD022070BD2DE9F05F04685FEAFE
:103C1000424C0B788D69B4F850C04FF000064BF65B
:103C20008F7948F2800A48F68F7B48F2C00E4FF435
:103C300080672AD54FF0020808EBC308C44407EB9D
:103C40004C07E45BC4F30904A54203D32D1B8D612B
:103C500001D00BE08E61066836F8235005EA0905AD
:103C600085F4005545EA0A0526F82350520609D581
:103C70000D78036833F8252002EA0B0242EA0E02AF
:103C800023F8252084B30A8929E04FF0060808EBC1
:103C9000C308C44407EB4C07E45BC4F30904A54222
:103CA00003D32D1B8D6101D00BE08E61066836F8C1
:103CB000235005EA090585F4005545EA0A0526F86A
:103CC0002350520609D40B78056835F8232002EA00
:103CD0000B0242EA0E0225F823202CB14A894969D9
:103CE0000068234604F0E4FB2046BDE8F09F2DE980
:103CF000F05F054600680C465FEA426C16468B6929
:103D00002278B0F850C048F68F774CF280094FF413
:103D1000004B4FF6FF7E4FF4806A4FF0000172D5E2
:103D20004FF0020808EBC208E0440AEB480C30F8F8
:103D30000C00C0F30900834211D91B1AA3610FD0F4
:103D4000730407D52E6836F822303B4043EA090356
:103D500026F8223094F82420012A47D052E1A161AC
:103D6000607810B1012813D01AE02868B0F85030FC
:103D7000184400EB0210B0F80424C2F30902A0F8C2
:103D80000424B0F8042442F40042A0F8042407E01C
:103D90002868B0F85030184400EB0210A0F8041462
:103DA0006278286812B1012A11D018E0B0F85010DA
:103DB0000844217800EB0110B0F80C14C1F309019C
:103DC000A0F80C14B0F80C1441F4004105E0B0F870
:103DD00050201044227800EB0210A0F80C14217837
:103DE0002846FFF7ACFE700472D40BE1626902440E
:103DF0006261E2690244E2612369226A9A4203D362
:103E00001846111A04E03EE084F824100AB1104666
:103E10002162617811B1012929D031E02968B1F816
:103E200050201144227801EB0211B1F80424C2F3AE
:103E30000902A1F8042401F204413E2807D94209ED
:103E4000C30600D1521E0B884BEA822207E048B11C
:103E50004208C30700D0521C0B880EEA822213438B
:103E60000B800DE00A8842F400420A8008E02968CD
:103E7000B1F850201144227801EB0211A1F804049A
:103E800083B22289BAE04FF0060808EBC208E0448A
:103E90000AEB480C30F80C00C0F30900834211D340
:103EA0001B1AA3610FD0730407D42E6836F8223092
:103EB0003B4043EA090326F8223094F82420012AE3
:103EC00051D09FE0A161607818B1012814D01BE0A7
:103ED0003FE02868B0F85030184400EB0210B0F80A
:103EE0000424C2F30902A0F80424B0F8042442F424
:103EF0000042A0F8042407E02868B0F850301844C5
:103F000000EB0210A0F804146278286812B1012AAC
:103F100011D018E0B0F850100844217800EB0110DF
:103F2000B0F80C14C1F30901A0F80C14B0F80C148B
:103F300041F4004105E0B0F850201044227800EB35
:103F40000210A0F80C1421782846FFF7F8FD700441
:103F500058D42278296831F82200384040EA090014
:103F600021F822004EE0626902446261E269024483
:103F7000E2612369226A9A4203D31846111A216228
:103F800004E00AB11046216284F82410627829689E
:103F900012B1012A28D02FE0B1F850201144227824
:103FA00001EB0211B1F80C24C2F30902A1F80C24B0
:103FB00001F20C413E2807D94209C30600D1521E26
:103FC0000B884BEA822207E048B14208C30700D0C1
:103FD000521C0B880EEA822213430B800CE00A88E5
:103FE00042F400420A8007E0B1F8502011442278E0
:103FF00001EB0211A1F80C04628983B2616928689F
:1040000004F074FA2278296831F8220048F6BF7368
:10401000184080F0300048F28003184321F8220055
:104020000020BDE8F09F01F0070101EB810100EBEA
:10403000C100D0F86C0170472DE9F04104460F062D
:1040400001F0070000EB800104EBC1014FF0010615
:104050004FF0000502D54E74103103E081F8515144
:1040600001F5A871022B08700A61CB7000D10D71A7
:1040700094F89002012809D084F89062206803F037
:1040800051FD284684F89052BDE8F0810220FBE7FC
:1040900010B501F0070404EB840100EBC101C1E994
:1040A00059230022C1F86C2181F8512181F8504137
:1040B000006801F5A87103F077FF002010BD70B50E
:1040C00004460D4601F007002179884201D90120FC
:1040D00070BD29064FF000064FF0010206D500EB37
:1040E000800104EBC1014A74103107E005EB850142
:1040F00004EBC10181F8516101F5A8718A70087063
:1041000094F89002012807D084F89022206803F0E8
:1041100032FF680702D006E0022070BD04F5267168
:10412000206803F0EAFE84F89062002070BD10B5AC
:1041300001F0070404EB840100EBC101C1E909238C
:10414000012281F834200B630023CB624A7401F80A
:10415000104F006803F028FF002010BD1FB5044673
:10416000006804F0A1F9010403D5204602F004F927
:104170001FBD41050DD5206830F8441F21F4806132
:104180000180204600F000F90021204600F017F9D8
:104190001FBD410405D5206830F8441F21F480413B
:1041A00074E0810405D5206830F8441F21F40051E3
:1041B0006CE0C10414D5206830F8401F21F00401E0
:1041C0000180206830F8401F21F00801018020465E
:1041D00000F0EDF8206830F8441F21F4805155E0DC
:1041E000010540D5D4F800200020694632F820307F
:1041F00021F81030401CC0B20828F7D332F8400F25
:1042000040F001001080206830F8402F22F00102B9
:1042100002802068B0F844205205FBD530F8442FC6
:1042200022F4806202800020236831F8102023F8F5
:104230002020401CC0B20828F6D3206830F8401F68
:1042400041F008010180206830F8441F21F400612A
:104250000180206830F8401F41F0040101802046B1
:1042600000F0E0F81FBD810509D5206830F8441F33
:1042700021F400710180204600F09DF81FBDC005AB
:10428000FCD5206830F8441F21F4807101801FBDE7
:104290002DE9F041040004D094F89102002518B1F2
:1042A00007E00120BDE8F08184F89052204600F03C
:1042B0004DF8032084F891026571206803F016FE22
:1042C00094E80F0003F07CFD022698BB00212068D3
:1042D00004F004F970BB002001270BE000EB800123
:1042E00004EBC1014F740874CD740D624D62401C23
:1042F000C0B28D6221798142F0D8002012E000BF67
:1043000000EB800104EBC10181F8515181F85001AB
:1043100081F85351C1F86051C1F86451401CC0B2DA
:10432000C1F8685121798142EAD894E80F0003F07E
:10433000D4FD10B184F89162B3E7657384F891728B
:10434000206803F0C8FD0020ACE7000008B5006855
:104350000B49884212D10B48C16941F40001C16187
:10436000C069002200F40000009005211420FFF72E
:1043700095FBBDE808401420FFF782BB08BD000094
:10438000005C00400010024070B5044680790125B1
:10439000022801D0FEF7EDFB2946D4F8D40203F041
:1043A00099F9D4F8D402BDE8704003F055B9D0F8BB
:1043B000D40203F079B9D0F8D40203F07FB910B574
:1043C000044690F8900201280AD0012084F8900257
:1043D0006173206804F084F8002084F8900210BD16
:1043E000022010BDD0F8D42200F52671104603F04B
:1043F0007DB910B5044690F89002012810D0012034
:1044000084F89002206804F040F801212046FFF76C
:1044100095FB206803F05DFD002084F8900210BD3C
:10442000022010BD10B50446D0F8D40203F09DF967
:10443000A07A002804D00348016841F00601016019
:1044400010BD000010ED00E02DE9F84305460078AE
:10445000354CC00754D0E0690026C00008D4E0699C
:1044600040F08050E061E069012600F0805000904B
:104470002E480168C90512D40168804641F4807154
:104480000160FEF7BDFF074605E000BFFEF7B8FF7D
:10449000C01B642823D8D8F80000C005F6D5206AD0
:1044A00010F4407021D0A98801F4407181421CD0E1
:1044B000206A1F49012220F440700A6000220A602D
:1044C0002062C00711D0FEF79BFF074641F28838F3
:1044D00008E000BFFEF794FFC11B414502D903204D
:1044E000BDE8F883206A8007F4D5206A696820F463
:1044F0004070084320621EB1E06920F08050E06106
:104500002878800705D56068A96820F440400843F2
:1045100060602878C00605D56068E96820F48000EE
:10452000084360600020DBE700100240007000409C
:10453000400442422DE9F0470F46050061D0434E4A
:10454000306800F00700B84209D2306820F0070058
:1045500038433060306800F00700B84251D1286815
:104560003B4C810712D5400703D5606840F4E060FA
:1045700060602878000703D5606840F46050606090
:104580006068A96820F0F000084360602878C007E0
:1045900028D06868012810D02168022810D0890727
:1045A00000292EDA616821F0030101436160FEF702
:1045B00027FF804641F288390DE021688903EFE743
:1045C0008901EDE7FEF71CFFA0EB0801494502D980
:1045D0000320BDE8F0876068696800F00C00B0EB6C
:1045E000810FEFD1306800F00700B8420BD9306876
:1045F00020F0070038433060306800F00700B84210
:1046000001D00120E5E72878400705D56068E96812
:1046100020F4E060084360602878000706D56068F1
:10462000296920F4605040EAC100606000F058F849
:104630006168084AC1F30311515CC840064908602B
:1046400006480068FFF7ACF90020C2E700200240EE
:1046500000100240C8BB0008540000205C0000208D
:104660000F2202600C4A536803F00303436053684F
:1046700003F0F0038360536803F4E063C36052689F
:104680004FF4E06303EAD20202610448006800F0DC
:104690000700086070470000001002400020024040
:1046A0000448054900684968044AC1F30221515C85
:1046B000C84070475400002000100240D8BB0008DA
:1046C0000448054900684968044AC1F3C221515CA5
:1046D000C84070475400002000100240D8BB0008BA
:1046E0000E4A51680E4801F00C03042B11D0082B20
:1046F0000FD10C48C1F38343C903C05C0AD551688C
:10470000084AC1F34041921E515C054A5043B0FB38
:10471000F1F0704704494843704700000010024020
:1047200000127A00E2BB000800093D002DE9F84FB5
:10473000040070D02078C04DC00749D06868C0F32D
:104740008100012807D06868C0F38100022809D1E0
:104750006868C00306D52868800339D560680028DA
:10476000E7D035E06068B0F5803F0BD010B1B0F510
:10477000A02F11D0286820F480302860286820F409
:10478000802002E0286840F480302860606890B1A2
:10479000FEF736FE06460AE0286840F480202860CE
:1047A000F0E700BFFEF72CFE801B642873D8286852
:1047B0008003F7D50CE0FEF723FE064605E000BFB8
:1047C000FEF71EFE801B6428F0D828688003F7D40B
:1047D00020789A4E80074FF001094FF0000839D534
:1047E000686810F00C0F07D06868C0F381000228D9
:1047F00009D16868C00306D42868800714D52069E9
:10480000012808D110E02069B0B1C6F80090FEF789
:10481000F7FD074605E00AE1FEF7F2FDC01B02289E
:10482000C4D828688007F7D52868616920F0F800A7
:1048300040EAC10028600DE0C6F80080FEF7E0FD08
:10484000074604E0FEF7DCFDC01B022823D82868D9
:104850008007F7D4207800072CD57948A169D9B111
:10486000C0F80090FEF7CCFD074604E0FEF7C8FD57
:10487000C01B02280FD8686A8007F7D571484FF42B
:10488000FA510068B0FBF1F0009000BF0098411EA3
:104890000091FAD20EE080E0C0F80080FEF7B0FD93
:1048A000074604E0FEF7ACFDC01B022875D8686A15
:1048B0008007F7D42078400760D5E8690027C0005A
:1048C00008D4E86940F08050E861E869012700F009
:1048D000805000905C480168C90513D40168834684
:1048E00041F480710160FEF78BFD824606E000BF57
:1048F000FEF786FDA0EB0A0064284ED8DBF8000026
:10490000C005F5D5E06801280AD008B1052813D004
:10491000286A20F001002862286A20F0040002E0E2
:10492000286A40F001002862E06841F2883B98B1B3
:10493000FEF766FD82460BE0286A40F0040028621C
:10494000EEE700BFFEF75CFDA0EB0A0159455AD81F
:10495000286A8007F6D50CE0FEF752FD824605E096
:10496000FEF74EFDA0EB0A0159454CD8286A800796
:10497000F6D41FB1E86920F08050E861E06988B39F
:104980006968C1F38101022944D00228C6F8608019
:1049900004D0FEF735FD044638E034E0FEF730FD84
:1049A000074604E0FEF72CFDC01B02282BD8286820
:1049B0008001F7D4206AB0F5803F05D16868A1680E
:1049C00020F4003008436860D4E9080108436968AE
:1049D00021F4741108436860C6F86090FEF710FD7A
:1049E000044606E025E000BFFEF70AFD001B022892
:1049F00009D828688001F7D51BE000BFFEF700FD4D
:104A0000001B022802D90320BDE8F88F2868800126
:104A1000F4D40EE00128F7D06868226A00F48031EF
:104A2000914204D1616A00F47010884201D00120E3
:104A3000EAE70020E8E700000010024000004242E0
:104A400080044242540000200070004070B5040011
:104A500009D0606A002540B125616561A56294F8BE
:104A6000510040B10CE0012070BD6068B0F5827F5C
:104A7000F4D0E561F2E784F85050204600F040F8A9
:104A8000022084F851002068016821F04001016093
:104A9000A088218900F4827001F404410843A189AF
:104AA00001F400610843217C01F002010843217DEB
:104AB00001F001010843218B01F400710843217FBB
:104AC00001F03801084394F8201001F080010843F8
:104AD000218D01F40051084321680860A069042178
:104AE00001EA1040216848602068C16921F4006132
:104AF000C1616565012084F85100002070BD00008F
:104B000000B585B0002100910191029103910068E8
:104B10000F4988421AD10F48816941F4805181615F
:104B2000816901F480510491816941F0040181613E
:104B30008069694600F004000490A02000900220E3
:104B40000190032003900448FEF760FB05B000BD10
:104B50000030014000100240000801402DE9F84FEC
:104B6000984616468A460446FEF74AFC814694F863
:104B7000510001281ED1BAF1000F73D0002E71D060
:104B800094F85000012815D0012784F850700320B4
:104B900084F8510000256565C4F830A0A686E68635
:104BA000A563A587E58765642564A068B0F5004F17
:104BB00003D00CE00220BDE8F88F2068016821F0E6
:104BC000400101602068016841F480410160206873
:104BD0000168490603D4016841F040010160E068C2
:104BE000B0F5006F606803D048B3012E27D047E0CE
:104BF00008B1012E1FD1206B21680088C86006E033
:104C000020688168890709D5216B0988C160206BFC
:104C1000801C2063E08E401EE0860CE0FEF7F0FB77
:104C2000A0EB0901414503D3B8F1FF3F03D035E0C4
:104C3000B8F1000F32D0E08E0028E1D123E0206BE4
:104C400021680078087306E02068816889070AD522
:104C5000216B09780173206B401C2063E08E401E9D
:104C6000E0860DE02BE0FEF7CBFBA0EB0901414510
:104C700003D3B8F1FF3F03D010E0B8F1000F0DD01F
:104C8000E08E0028E0D14A464146204601F047FD2B
:104C900008B120206065A06830B109E084F8517047
:104CA00084F85050032086E72068C168806800902F
:104CB00084F8517004F8505F60680028F3D0012038
:104CC00079E77047704710B590F83C20012A22D050
:104CD000012280F83C20CA688C6822F4407222438A
:104CE0004C6822F4806222430C6822F40062224362
:104CF0000C6922F4805222434C6922F40052224370
:104D0000C969002322F480420A4301684A6480F89A
:104D10003C30002010BD022010BD000070B590F89E
:104D20003C20012A26D0012480F83C40022280F851
:104D30003D2003685A689D6822F070060A68324375
:104D40005A600D4B02689A4208D0B2F1804F05D0EC
:104D50000A4B9A4202D00A4B9A4204D1496825F084
:104D600080031943916080F83D40002180F83C1099
:104D7000084670BD022070BD002C014000040040B8
:104D80000008004010B5040003D094F83D0010B1B5
:104D900007E0012010BD002084F83C00204600F010
:104DA0001FF8022084F83D00211D206801F0A4FDB9
:104DB000012084F8460084F83E0084F83F0084F81F
:104DC000400084F8410084F8420084F8430084F8ED
:104DD000440084F8450084F83D00002010BD000028
:104DE00008B50068B0F1804F12D10A48C16941F09E
:104DF0000101C161C069002200F00100009005219D
:104E00001C20FEF74BFEBDE808401C20FEF738BE14
:104E100008BD00000010024090F83D10012901D0AB
:104E200001207047022180F83D1000680B4988423C
:104E300008D0B0F1804F05D00949884202D0094915
:104E4000884204D1816801F00701062903D0016876
:104E500041F001010160002070470000002C01407A
:104E6000000400400008004090F83D10012901D0E6
:104E700001207047022180F83D100168CA6842F0A5
:104E80000102CA6000680B49884208D0B0F1804F27
:104E900005D00949884202D00849884204D1816876
:104EA00001F00701062903D0016841F0010101600A
:104EB00000207047002C0140000400400008004022
:104EC00001680A6A41F211131A4207D10A6A9B105B
:104ED0001A4203D10A6822F001020A60012180F817
:104EE0003D100020704770B5044690F83C00002546
:104EF000012817D0012684F83C60022084F83D0088
:104F00002068826822F0770222F47F42826008687B
:104F1000502838D00DDC20284FD005DC90B3102865
:104F200011D14AE0022070BD302846D040280AD175
:104F30003BE060282FD070280DD0B0F5805F03D003
:104F4000B0F5005F12D0012584F83D60002084F8A0
:104F50003C00284670BDCB68D1E90121206801F0F2
:104F600089FD2068816841F0770109E0CB68D1E9CB
:104F70000121206801F07EFD2068816841F48041B4
:104F80008160E1E719E0CA684968206801F026FEFF
:104F90005021206806E0CA684968206801F02FFEA9
:104FA0006021206801F070FDCEE7CA68496820687A
:104FB00001F014FE40212068F4E722680146104603
:104FC000F0E7704770472DE9F04104460068C66875
:104FD00005694FF00007A90713D5B10711D5F91ED0
:104FE000016101202077206880698007204602D077
:104FF000FFF7E8FF04E000F0BBF8204600F094F96A
:105000002777680716D5700714D521686FF004005C
:105010000861022020772068806910F4407F2046D4
:1050200002D0FFF7CFFF04E000F0A2F8204600F026
:105030007BF92777280715D5300713D521686FF03E
:1050400008000861042020772068C0698007204696
:1050500002D0FFF7B7FF04E000F08AF8204600F026
:1050600063F92777E80616D5F00614D521686FF0A6
:1050700010000861082020772068C06910F4407F84
:10508000204602D0FFF79EFF04E000F071F82046B2
:1050900000F04AF92777E80708D0F00706D0216822
:1050A0006FF001000861204600F058FA280608D584
:1050B000300606D521686FF0800008612046FFF7B2
:1050C00000FE680608D5700606D521686FF040001E
:1050D0000861204600F04CFAA8060AD5B00608D5AB
:1050E00021686FF0200008612046BDE8F041FFF71D
:1050F000E9BDBDE8F081000000B585B00021009158
:10510000019102910391154B0268154802219A42C0
:105110000ED1826942F0040282618069039100F03D
:1051200004000490C801CDE9000169460D4810E073
:105130000D4B9A420FD1826942F008028261806968
:10514000039100F0080004900120CDE900016946B8
:105150000648FEF75BF805B000BD0000002C0140DA
:10516000001002400008014000040040000C014013
:10517000704770B5044690F83C0000260D460128A3
:105180000FD0012084F83C006AB1042A1DD0082AFF
:105190002FD00C2A3FD00126002084F83C00304656
:1051A00070BD022070BD206801F076FC2068816926
:1051B00041F0080181612068816921F00401816169
:1051C000206881692A69114311E0206801F08CFC94
:1051D0002068816941F4006181612068816921F45E
:1051E00080618161206881692A6941EA02218161C7
:1051F000D2E7206801F0A4FC2068C16941F00801F1
:10520000C1612068C16921F00401C1612068C169E0
:105210002A69114311E0206801F0BEFC2068C169D1
:1052200041F40061C1612068C16921F48061C161FC
:105230002068C1692A6941EA0221C161ACE710B561
:10524000040003D094F83D0010B107E0012010BD28
:10525000002084F83C00204600F01EF8022084F86C
:105260003D00211D206801F047FB012084F8460025
:1052700084F83E0084F83F0084F8400084F8410040
:1052800084F8420084F8430084F8440084F8450020
:1052900084F83D00002010BD38B5054600681D4A61
:1052A0001D49904208D1886940F40060886188698E
:1052B00000F40060009038BD184A9042FBD1C869E4
:1052C00040F00200C861C869164C00F0020000906E
:1052D00013482060102060600020A0608020E06003
:1052E00040002061800060612020A061C001E06179
:1052F0002046FDF713FF08B1FDF73BFCEC620022EE
:1053000005211D206562FEF7C9FBBDE838401D2060
:10531000FEF7B6BB002C0140001002400004004024
:105320001C000240C00600207047704710B50446BC
:10533000022249B104290ED0082913D094F8410063
:10534000012816D0012010BD94F83E000128F9D1A3
:1053500084F83E200FE094F83F000128F2D184F851
:105360003F2008E094F840000128EBD184F8402069
:1053700001E084F841200122206801F0F9FA0F4988
:105380002068884203D1426C42F4004242642068A3
:10539000884208D0B0F1804F05D00949884202D038
:1053A0000849884204D1816801F00701062903D029
:1053B000016841F001010160002010BD002C014096
:1053C00000040040000800402DE9F04117460D00A0
:1053D00004464FF000060CD0042D11D0082D16D035
:1053E00094F84100022819D094F84100012818D0FF
:1053F0007CE094F83E00022810D094F83E00F5E7D7
:1054000094F83F00022809D094F83F00EEE794F8A2
:105410004000022802D094F84000E7E70220BDE8EF
:10542000F081002F62D0002B60D04649464ADFF859
:105430001CC102204DB1042D18D0082D27D084F8AE
:1054400041000C2D44D0012679E084F83E00606ACA
:105450008162606A3946C262606AC0F830C0226800
:10546000606A3432FDF788FE88BB21E084F83F0093
:10547000A06A8162A06A3946C262A06AC0F830C0E0
:105480002268A06A3832FDF777FE00BB15E084F889
:105490004000E06A8162E06A3946C262E06AC0F8B0
:1054A00030C02268E06A3C32FDF766FE78B909E058
:1054B0002068C16841F400711EE02068C16841F4B1
:1054C000806119E02068C16841F4006114E00DE0DA
:1054D000206B8162206B3946C262206BC0F830C0FD
:1054E0002268206B4032FDF747FE08B1012096E7A5
:1054F0002068C16841F48051C160012229462068BA
:1055000001F036FA12492068884203D1426C42F415
:10551000004242642068884208D0B0F1804F05D034
:105520000C49884202D00C49884204D1816801F0BC
:105530000701062903D0016841F0010101603046EE
:105540006DE700008B690008E9690008216A00081E
:10555000002C01400004004000080040006803499E
:10556000884201D1FEF702BA7047000000080040EF
:10557000704718B5034690F84200202801D0022059
:1055800018BD61B15AB10120186300205863184654
:1055900001F034FC0028F3D1196B012901D001205E
:1055A00018BD19680A684968009119680C3151E8FA
:1055B000002F42F0100241E80024002CF5D118BD64
:1055C00000680449884204D1402203490348FFF798
:1055D000D0BF704700380140980200200407002027
:1055E00000680449884204D1402203490348FFF778
:1055F000C0BF704700380140980200200407002017
:10560000F8B5016804460868CA684B6910F00F0FC6
:105610004FF0000559D003F0010602F490773743AC
:1056200065D0C10705D0D10503D5616C41F00101FA
:105630006164410705D5D90703D0616C41F00201CF
:105640006164810705D5D90703D0616C41F004017D
:105650006164010707D502F02001314303D0616C7A
:1056600041F008016164616C00293AD0800604D5DC
:10567000900602D5204601F003FB20684069616C6A
:10568000C0F38010090700D460B3204601F0D1FABE
:1056900020684069400621D52068143050E8001F7A
:1056A00021F0400140E80012002AF5D1E06BA8B1DA
:1056B0006D494163E06BFDF73BFC002811D0E06BC6
:1056C000416B01B0BDE8F040084783060FD5930653
:1056D0000DD52046BDE8F84001F0D2BA2046FFF7CC
:1056E0007FFFF8BD2046FFF77BFF6564F8BD266BA2
:1056F0002023012E7CD1C6067AD5D60678D5086837
:105700004868009048694FF00206400640D5E16BBA
:10571000086840680004000CE8D0A28D8242E5D9F8
:10572000E085886920282DD020680C3050E8001FC3
:1057300021F4807140E80012002AF5D1206814306D
:1057400050E8001F21F0010140E80012002AF5D1C5
:105750002068143050E8001F21F0400140E800129A
:10576000002AF5D184F84230256320680C3050E8D7
:10577000001F21F0100140E80012002AF5D1E06B73
:10578000FDF7B2FB6663A08DE18D401A81B22AE07D
:10579000A08DE18D401A81B2E08D0028A6D00029AD
:1057A000A4D022680C3252E8000F20F4907042E836
:1057B0000007002FF5D12068143050E8002F22F0A8
:1057C000010240E80027002FF5D184F8423025631C
:1057D00020680C3050E8002F22F0100240E800232F
:1057E000002BF5D166632046FFF7EAFEF8BDFFE720
:1057F00005062BD5150629D594F841002128F5D1A9
:10580000A068B0F5805F01D12069B0B1206A411C69
:105810002162216800784860E08C401E0004000C82
:10582000E084E3D12068C16821F08001C160206874
:10583000C16841F04001C160D8E7206A0088C0F328
:1058400008004860206A801C2062E5E74006CDD54C
:105850005006CBD5CA68204622F04002CA6084F8C0
:10586000413000F076F8C1E7236C000870B5040001
:1058700004D094F84100002510B106E0012070BD6D
:1058800084F84050204600F023F8242084F841009A
:105890002068C16821F40051C160204601F052FA2D
:1058A0002068016921F4904101612068416921F07B
:1058B0002A0141612068C16841F40051C1606564FA
:1058C000202084F8410084F842006563002070BD08
:1058D00030B585B0002400940194029403940068CC
:1058E000184988422CD11848816941F4804181616E
:1058F000816901F480410491816941F00401816171
:105900008069124D00F0040004904FF40070009084
:10591000022001900320039069462846FDF776FC9B
:105920002815CDE90004694628460294FDF76EFC6F
:10593000002205212520FEF7B1F82520FEF7A0F86A
:1059400005B030BD003801400010024000080140A1
:1059500070477047FEE701684A69D24352050FD489
:105960006FF480624A61002140F8301F20224273A8
:105970008173026942F004020261017301207047E1
:10598000002070472DE9F84F0446C06A1E46934632
:105990000D4621680A6842F480620A60082807D030
:1059A000012805D010F5803F02D0206B112804D1CA
:1059B0002068016841F4807101604FF001195B4675
:1059C000002249462046009600F0CCF84FF40078BB
:1059D00040B120680068C00501D5C4F840800320AC
:1059E000BDE8F88F2069DFF884A0B0F5804F0FD0B4
:1059F0000620216800EAD51747F0F0000861334619
:105A00005A460AF10601204600F0F4F858BB03E0BC
:105A1000E8B240F001001CE02168E8B208613346BA
:105A20005A465146204600F0E5F8E0B92068416941
:105A300081690091016841F4807101605B46002238
:105A400049462046009600F08DF80028C1D147F065
:105A5000F1002168086133465A465146204600F05D
:105A6000C9F80028BCD00120BAE7000002000100FC
:105A7000F8B50446C06A1E460D461746082807D0EA
:105A8000012805D010F5803F02D0206B122804D1E8
:105A90002068016841F480710160134600224FF0D4
:105AA00001112046009600F05DF840B120680068C2
:105AB000C00502D54FF4007020640320F8BD2069B2
:105AC000B0F5804F0ED00620216800EAD51040F0D6
:105AD000F000086133463A460B49204600F08AF848
